:100000000C9462000C948A000C948A000C948A0070
:100010000C948A000C948A000C948A000C94A4031B
:100020000C948A000C948A000C948A000C948A0028
:100030000C948A000C948A000C948A000C948A0018
:100040000C9402030C948A000C9472030C944C03DD
:100050000C948A000C948A000C948A000C948A00F8
:100060000C948A000C948A00000000080002010031
:100070000003040700000000000000000000000072
:10008000240027002A000000000023002600290089
:1000900000000000250028002B00040404040404D0
:1000A0000404020202020202030303030303010227
:1000B00004081020408001020408102001020408F6
:1000C0001020C90311241FBECFEFD8E0DEBFCDBF83
:1000D00011E0A0E0B1E0EEE9FAE002C005900D9277
:1000E000AE31B107D9F721E0AEE1B1E001C01D9218
:1000F000AA3DB207E1F710E0C2E6D0E004C02197C4
:10010000FE010E944705C136D107C9F70E94360497
:100110000C944D050C94000090E0FC01E859FF4F51
:100120002491FC01E255FF4F3491FC01E656FF4F4C
:10013000E491EE23C9F0222339F0233001F1A8F431
:10014000213019F1223029F1F0E0EE0FFF1FE057C6
:10015000FF4FA591B4918FB7F894EC91611126C02F
:1001600030953E233C938FBF08952730A9F0283067
:10017000C9F0243049F7809180008F7D03C08091C1
:1001800080008F7780938000DFCF84B58F7784BD28
:10019000DBCF84B58F7DFBCF8091B0008F778093CC
:1001A000B000D2CF8091B0008F7DF9CF3E2BDACF57
:1001B000CF93DF9390E0FC01E255FF4F24918656E8
:1001C0009F4FFC0184918823D1F090E0880F991F04
:1001D000FC01E458FF4FA591B491FC01E057FF4F9B
:1001E000C591D49161110EC09FB7F8948C91E22F04
:1001F000E0958E238C932881E223E8839FBFDF91D3
:10020000CF9108958FB7F894EC91E22BEC938FBFC8
:10021000F6CF3FB7F8948091270190912801A091E3
:100220002901B0912A0126B5A89B05C02F3F19F0DE
:100230000196A11DB11D3FBFBA2FA92F982F882766
:10024000BC01CD01620F711D811D911D42E0660F41
:10025000771F881F991F4A95D1F70895AF92BF92D3
:10026000CF92DF92EF92FF920F931F93CF93DF9382
:100270006C017B018B01040F151FEB015E01AE18B1
:10028000BF08C017D10759F06991D601ED91FC91D3
:100290000190F081E02DC6010995892B79F7C50100
:1002A000DF91CF911F910F91FF90EF90DF90CF9052
:1002B000BF90AF900895FC01538D448D252F30E001
:1002C000842F90E0821B930B541710F0CF96089563
:1002D00001970895FC01918D828D981761F0A28D90
:1002E000AE0FBF2FB11D5D968C91928D9F5F9F7356
:1002F000928F90E008958FEF9FEF0895FC01918D0C
:10030000828D981731F0828DE80FF11D858D90E078
:1003100008958FEF9FEF0895FC01918D228D892F15
:1003200090E0805C9F4F821B91098F7399270895FD
:100330008BE291E00E948C0121E0892B09F420E0FE
:10034000822F089580E090E0892B29F00E94980187
:1003500081110C9400000895FC01A48DA80FB92F01
:10036000B11DA35ABF4F2C91848D90E001968F73DD
:100370009927848FA689B7892C93A089B1898C91FC
:10038000837080648C93938D848D981306C002884B
:10039000F389E02D80818F7D80830895EF92FF9215
:1003A0000F931F93CF93DF93EC0181E0888F9B8D98
:1003B0008C8D98131AC0E889F989808185FF15C052
:1003C0009FB7F894EE89FF896083E889F989808175
:1003D0008370806480839FBF81E090E0DF91CF9144
:1003E0001F910F91FF90EF900895F62E0B8D10E066
:1003F0000F5F1F4F0F731127E02E8C8D8E110CC0D5
:100400000FB607FCFACFE889F989808185FFF5CF1F
:10041000CE010E94AC01F1CFEB8DEC0FFD2FF11D51
:10042000E35AFF4FF0829FB7F8940B8FEA89FB895C
:1004300080818062CFCFCF93DF93EC01888D8823BA
:10044000B9F0AA89BB89E889F9898C9185FD03C037
:10045000808186FD0DC00FB607FCF7CF8C9185FF1C
:10046000F2CF808185FFEDCFCE010E94AC01E9CFB4
:10047000DF91CF9108950F931F93E091D201F091F6
:10048000D30180819091CC01892B8083E091CE01B2
:10049000F091CF0190818091CC0180958923808358
:1004A0008BE090E00197F1F7E091CE01F091CF0160
:1004B00080819091CC01892B808383E290E0019729
:1004C000F1F7E091CE01F091CF0190818091CC01C4
:1004D000809589238083E091D201F091D3019081AE
:1004E0008091CC01809589238083E091D001F091A7
:1004F000D10180819091CD01892329F090E080E0A5
:100500001F910F9108950E940901AB01BC018091D8
:10051000D4019091D501B0E0A0E08855994EAF4F3D
:10052000BF4F840F951FA61FB71F8093D6019093CE
:10053000D701A093D801B093D901E091D001F091F7
:10054000D10180819091CD01892381F40E9409011C
:100550000091D6011091D7012091D8013091D90195
:10056000061717072807390740F7C8CF0E94090167
:100570002091D4013091D501620F731F811D911D0F
:100580006093D6017093D7018093D8019093D901DD
:10059000E091D001F091D10180819091CD0189232A
:1005A00081F00E9409010091D6011091D70120919C
:1005B000D8013091D901061717072807390740F7E6
:1005C0009DCF0E9409012091D4013091D501A9014C
:1005D000455051092091D6013091D701FA01E21B13
:1005E000F30BCF01860F971F8BCFFC0101900020EA
:1005F000E9F73197AF01481B590BBC018BE291E041
:100600000C942E011F920F920FB60F9211242F936C
:100610003F938F939F93AF93BF93809123019091CA
:100620002401A0912501B09126013091220123E0FF
:10063000230F2D3758F50196A11DB11D20932201DE
:100640008093230190932401A0932501B093260168
:100650008091270190912801A0912901B0912A0150
:100660000196A11DB11D8093270190932801A093AD
:100670002901B0932A01BF91AF919F918F913F9132
:100680002F910F900FBE0F901F90189526E8230F03
:100690000296A11DB11DD2CF1F920F920FB60F92DD
:1006A00011242F933F934F935F936F937F938F9377
:1006B0009F93AF93BF93EF93FF938BE291E00E94E0
:1006C000AC01FF91EF91BF91AF919F918F917F917D
:1006D0006F915F914F913F912F910F900FBE0F90AF
:1006E0001F9018951F920F920FB60F9211242F93FF
:1006F0008F939F93EF93FF93E0913B01F0913C0127
:100700008081E0914101F091420182FD1BC0908106
:10071000809144018F5F8F7320914501821741F0D2
:10072000E0914401F0E0E55DFE4F958F8093440138
:10073000FF91EF919F918F912F910F900FBE0F908E
:100740001F9018958081F4CF1F920F920FB60F92D1
:1007500011242F933F934F935F936F937F938F93C6
:100760009F93AF93BF93EF93FF93F0E0E0E0099581
:10077000FF91EF91BF91AF919F918F917F916F9179
:100780005F914F913F912F910F900FBE0F901F904F
:100790001895EBE2F1E01382128288EE93E0A0E07C
:1007A000B0E084839583A683B78384E091E091834E
:1007B000808385EC90E09587848784EC90E0978730
:1007C000868780EC90E0918B808B81EC90E0938B1E
:1007D000828B82EC90E0958B848B86EC90E0978BFB
:1007E000868B118E128E138E148EEAEBF0E0E4915C
:1007F000A8ECB1E01496EC931497E9EBF0E0E491E7
:100800001596EC93159786EA90E0FC012491E22F6F
:10081000F0E0EE0FFF1FE057FF4F25913491179640
:100820003C932E931697E5EAF0E0E491F0E0EE0FAA
:10083000FF1FEA57FF4F2591349119963C932E9351
:100840001897FC018491E82FF0E0EE0FFF1FE458A9
:10085000FF4F859194911B969C938E931A9781ECF0
:100860009CE21D969C938E931C970895CF93DF93E3
:10087000CDB7DEB7A1970FB6F894DEBF0FBECDBFE0
:10088000789484B5826084BD84B5816084BD85B56B
:10089000826085BD85B5816085BD80916E00816077
:1008A00080936E001092810080918100826080931D
:1008B000810080918100816080938100809180001F
:1008C0008160809380008091B10084608093B1004A
:1008D0008091B00081608093B00080917A00846044
:1008E00080937A0080917A00826080937A00809170
:1008F0007A00816080937A0080917A00806880938A
:100900007A001092C10061E08CE00E94D80060E0A3
:100910008BE00E94D800E0913B01F0913C0182E025
:100920008083E0913701F09138011082E091390124
:10093000F0913A018FEC808310924301E0913F01E6
:10094000F091400186E08083E0913D01F0913E010D
:10095000808180618083E0913D01F0913E01808142
:1009600088608083E0913D01F0913E018081806844
:100970008083E0913D01F0913E0180818F7D8083F5
:1009800061E086E00E94D80061E085E00E94D80026
:1009900089E3C82ED12CE12CF12C9AE0492E512C60
:1009A000612C712C20E0A22E20E0B22E82E191E099
:1009B0000E94F5020E943B02BC0190E080E0A7018A
:1009C00096010E94250519A28E010F5D1F4FCA01D5
:1009D000B901A30192010E942505605DF8016293AF
:1009E0008F01211531054105510589F7309719F01F
:1009F000CF010E94F5028BE191E00E94F5020E9476
:100A00003B028337924040F461E086E00E948C0014
:100A100060E085E00E948C000E943B028337924098
:100A200040F061E085E00E948C0060E086E00E947A
:100A30008C00A114B10409F4B9CF0E949801882355
:100A400009F4B4CF0E940000B1CFA1E21A2EAA1B74
:100A5000BB1BFD010DC0AA1FBB1FEE1FFF1FA2176E
:100A6000B307E407F50720F0A21BB30BE40BF50B6B
:100A7000661F771F881F991F1A9469F760957095F4
:100A8000809590959B01AC01BD01CF010895EE0FBB
:0E0A9000FF1F0590F491E02D0994F894FFCF1C
:100A9E0000000000CE012E015B011B028C016A01D9
:0E0AAE007E0164697374616E6365000D0A0059
:00000001FF
