:100000000C94E2000C940A010C940A010C940A016D
:100010000C940A010C940A010C940A010C940A0134
:100020000C940A010C940A010C9455040C94C70416
:100030000C940A010C940A010C940A010C940A0114
:100040000C940A010C940A010C940A010C940A0104
:100050000C940A010C940A010C940A010C940B04F0
:100060000C940A010C940A010C940A010C940A01E4
:100070000C940A010C940A010C940A010C940A01D4
:100080000C940A010C940A010C940A010C940A01C4
:100090000C940A010C940A010C940A010C940A01B4
:1000A0000C940A010C940A010C940A0132013501E6
:1000B000240128012C0156015601560139013D0148
:1000C000410147014B01560151010000000024008D
:1000D00027002A002D003000000000002300260029
:1000E00029002C002F00080B000202020100090465
:1000F0000000010202000005240010010524010196
:1001000001042402060524060001070581031000EE
:100110004009040100020A00000007050202400035
:1001200000070583024000000403090412010002D5
:10013000EF020140412341800001010203014172AD
:100140006475696E6F204C4C430041726475696E32
:100150006F2059756E0000000000250028002B005C
:100160002E00310004040404040304050202020208
:100170000403020202020606060606060404020240
:100180000204040408020110408040102040804016
:1001900080080204018040201002011080102040DD
:1001A00040200000000200090F0000030401000CC1
:1001B000000000000000000000000000000000003F
:1001C0000000D10811241FBECFEFDAE0DEBFCDBFA3
:1001D00011E0A0E0B1E0ECE8F4E102C005900D927E
:1001E000A433B107D9F721E0A4E3B1E001C01D9227
:1001F000A53AB207E1F710E0C2EED0E004C02197C3
:10020000FE010E94390AC13ED107C9F70E944A0780
:100210000C94440A0C940000E8EAF1E04491E9E807
:10022000F1E02491EAE6F1E09491992309F452C0B7
:100230004423E1F150E0FA013197EF30F105B0F5D8
:10024000EA5AFF4F0C94390A309180003F7707C07B
:10025000309180003F7D03C030918000377F309324
:10026000800024C034B53F7702C034B53F7D34BD33
:100270001DC0309190003F7707C0309190003F7DC6
:1002800003C030919000377F309390000FC03091C1
:10029000C0003F7703C03091C0003F7D3093C00065
:1002A00005C03091C200377F3093C200E92FF0E0E3
:1002B000EE0FFF1FEA5AFE4FA591B4919FB7F89435
:1002C000811104C08C912095282302C0EC912E2B23
:1002D0002C939FBF089520915401211103C08FEFEB
:1002E0009FEF08955FB7F89422E02093E9002091F2
:1002F000F20030E01216130614F421E030E0422F31
:10030000FC0184E6415038F0289880935301909185
:10031000F1009193F7CF2115310521F08091F20082
:10032000882319F05FBFC90108958BE68093E80028
:10033000F9CF2FB7F89483E08093E9009091E8001B
:10034000892F807295FF04C09091F20080E4891B90
:100350002FBF089580914B0181110DC082E08093E1
:10036000470184E08093480110924A0110924901AC
:1003700081E080934B0187E491E008953FB7F894C2
:100380008091430190914401A0914501B0914601B3
:1003900026B5A89B05C02F3F19F00196A11DB11DE0
:1003A0003FBFBA2FA92F982F8827820F911DA11D1B
:1003B000B11DBC01CD0142E0660F771F881F991F58
:1003C0004A95D1F70895CF92DF92EF92FF920E9463
:1003D000BE016B017C010E94BE01DC01CB018C19C6
:1003E0009D09AE09BF09883E9340A105B10598F368
:1003F000FF90EF90DF90CF90089540913801509199
:100400003901209136013091370142175307B4F476
:100410009091E8009570E1F39091E80092FD19C089
:100420008093F100809138019091390101968F738A
:100430009927892B19F48EEF8093E8008091380179
:10044000909139010196909339018093380181E0B0
:10045000089580E00895DF92EF92FF920F931F932B
:10046000CF93DF93D82EF92EE42E062F10E0C8018B
:100470000196880F0E94FD0183E00E94FD01CD2DB1
:10048000DF2D0C0F1D1FC017D10789F0E7FE03C039
:10049000FE01849101C088810E94FD01F82E80E058
:1004A0000E94FD018F2121968111EDCF01C081E0D5
:1004B000DF91CF911F910F91FF90EF90DF90089502
:1004C000DF92EF92FF920F931F93CF93DF93D82E7B
:1004D0008A017B01E40EF51EEB01CE15DF0571F0FC
:1004E000D7FE03C0FE01849101C088810E94FD01F6
:1004F00021968111F2CF8FEF9FEF01C0C801DF91EC
:10050000CF911F910F91FF90EF90DF9008950F937F
:100510001F93CF93DF931F92CDB7DEB782E089831D
:1005200042E450E066EE70E080E80E9460020E94C3
:10053000AA01DC0112960D911C911397011511056A
:1005400089F0D801ED91FC910280F381E02DBE018C
:100550006F5F7F4FC801099597FD04C0F8010085C2
:100560001185ECCF89810F90DF91CF911F910F9171
:100570000895615030F02091F100FC012083019634
:10058000F8CF289884E6809353010895CF92DF92A4
:10059000EF92FF920F931F93CF93DF936C017A0139
:1005A0008B01C0E0D0E0CE15DF0581F0D8016D9160
:1005B0008D01D601ED91FC910190F081E02DC601F5
:1005C0000995892B11F02196EECF7E01C701DF91AD
:1005D000CF911F910F91FF90EF90DF90CF900895F2
:1005E0008F929F92AF92BF92CF92DF92EF92FF9243
:1005F0000F931F93CF93DF936C017B018A0180914E
:100600000B01882309F458C080915401882309F410
:1006100053C080913C0180FF05C08091E000826062
:100620008093E000E801B12C8AEFA82E93E0892E98
:100630002AE3922E209711F4BB20B9F10E94990170
:10064000811106C0AA94AA20B9F10E94E301F2CF59
:10065000282F30E0C217D3070CF48C2F9FB7F894E3
:100660008092E9002091E80025FF1DC0282F30E08E
:10067000C21BD30BF701815020F041914093F10050
:10068000FACFE20EF31EBB2019F09092E8000AC0E8
:100690008091E80085FD07C09092E800BB24B394E8
:1006A000209709F0B12C9FBFC5CF5D9884E6809359
:1006B0003D011016110644F081E090E0F6019383AD
:1006C000828380E090E001C0C801DF91CF911F914B
:1006D0000F91FF90EF90DF90CF90BF90AF909F90E1
:1006E0008F900895CF93DF931F92CDB7DEB76983C4
:1006F000DC01ED91FC910280F381E02D41E050E0BE
:10070000BE016F5F7F4F09950F90DF91CF910895E4
:1007100083E08093E9008091F200882319F08AE356
:100720008093E80008950E94990190E00895CF9386
:10073000DF931F92CDB7DEB7FC018485958597FDC9
:1007400005C02FEF3FEF358724870BC0CE01019600
:100750000E946B01019719F4898190E002C08FEF2C
:100760009FEF0F90DF91CF9108950F931F93CF9339
:10077000DF931F92CDB7DEB78C01FC018485958590
:1007800097FF0EC0CE0101960E946B01019719F4EC
:10079000898190E002C08FEF9FEFF80195878487F1
:1007A000F801848595850F90DF91CF911F910F916E
:1007B0000895FC018485958597FD0BC09FB7F8943B
:1007C00082E08093E9008091F2009FBF90E0019663
:1007D00008959FB7F89482E08093E9008091F20039
:1007E0009FBF90E00895089580E090E008950097FD
:1007F00069F0FC0101900020E9F73197AF01481B37
:10080000590BBC0185E591E00C94F00280E090E08A
:1008100008950E943F0A1F920F920FB60F92112463
:100820002F933F938F939F93AF93BF9380913F01FB
:1008300090914001A0914101B091420130913E015F
:1008400023E0230F2D3720F40196A11DB11D05C013
:1008500026E8230F0296A11DB11D20933E0180932F
:100860003F0190934001A0934101B09342018091D8
:10087000430190914401A0914501B0914601019638
:10088000A11DB11D8093430190934401A0934501A4
:10089000B0934601BF91AF919F918F913F912F915E
:1008A0000F900FBE0F901F9018951F920F920FB6CA
:1008B0000F9211248F939F938091E1009091E1001A
:1008C000937F9093E10083FF0FC01092E90091E0C5
:1008D0009093EB001092EC0092E39093ED00109255
:1008E000540198E09093F00082FF20C093E0909331
:1008F000E9009091F200992319F09AE39093E800AF
:1009000090913D01992339F090913D019150909340
:100910003D01992389F190915301992339F09091E8
:100920005301915090935301992341F184FF10C0DA
:100930008091E2008E7E81608093E2008091E100F0
:100940008F7E8093E10080913C018E7E806111C09A
:1009500080FF16C08091E2008E7E80618093E2006D
:100960008091E1008E7E8093E10080913C018E7E3B
:10097000816080933C0104C05D9ACDCF289AD6CF88
:100980009F918F910F900FBE0F901F9018951F92FF
:100990000F920FB60F921124CF92DF92EF92FF9237
:1009A0000F931F932F933F934F935F936F937F9377
:1009B0008F939F93AF93BF93EF93FF93CF93DF9367
:1009C000CDB7DEB76C97DEBFCDBF1092E900809146
:1009D000E80083FFFBC168E0CE0145960E94B902A2
:1009E00082EF8093E8008D8987FF05C09091E80031
:1009F00090FFFCCF03C09EEF9093E800982F907675
:100A000009F0C6C09E894F89588D2F89F88C9111A5
:100A10000CC0803829F480913B018093F10002C022
:100A20001092F1001092F10045C1913051F4811102
:100A300041C14130510509F03DC180913B018D7F9D
:100A40000BC0933061F4811135C14130510509F07B
:100A500031C180913B01826080933B012BC1953075
:100A600049F48091E80080FFFCCF822F806880935A
:100A7000E30020C1963009F05EC00B8D1C8D22E092
:100A80001092E9001092390110923801F21232C02E
:100A900010923701109236010E94870299E0BE0140
:100AA0006F5F7F4FDB01E92F1D92EA95E9F799838C
:100AB000FA8291E09E8390EA98879AEF9987209135
:100AC000380130913901275F3F4F3C832B838D8361
:100AD0001092E900109239011092380110933701F9
:100AE0000093360149E050E080E00E9460020E94DD
:100AF0008702E0C010933701009336010E94AA01DB
:100B0000DC0112960D911C9113970115110509F442
:100B1000BBC0D801ED91FC910480F581E02DBE01B0
:100B20006B5E7F4FC8010995009709F0C7C0F801B7
:100B300000851185EACF973009F445C1983021F43A
:100B400081E08093F100B6C0993009F0B3C08370A2
:100B500009F039C1EFE1F1E081E031E096E3208175
:100B6000211109C08EE78093EA001092EA008F8974
:100B7000809354019FC08093E9003093EB00219152
:100B80002093EC009093ED008F5F873041F7EACF20
:100B90008B8D9C8D1092E9001092390110923801D2
:100BA0009093370180933601898D811153C08E89CE
:100BB0009D89913A49F4813209F005C147E050E03E
:100BC00064E071E080E0BBC0913209F0FCC0833288
:100BD00069F48F89988DA0E0B0E080930001909334
:100BE0000101A0930201B093030164C0803269F453
:100BF0008091E80082FFFCCF67E084E091E00E94F2
:100C0000B9028BEF8093E80055C0823209F052C0E0
:100C10008F8980930B01EEEFFFE7859194918B3FD5
:100C20009C4D19F0E0E0F8E002C0EEEFFAE08091B0
:100C3000040190910501A0910601B0910701803B4C
:100C40009440A105B10509F09EC080910B0180FF81
:100C500079C099C00E94AA01FC010281138101158B
:100C6000110509F4B0C0D801ED91FC910190F0811B
:100C7000E02DBE016B5E7F4FC801099581111AC03E
:100C8000F80100851185EBCFF1E0FF1609F44EC0A5
:100C9000F3E0FF1298C08F89882309F44AC082309C
:100CA00089F440E86BE08AE491E00E942B028823FB
:100CB00009F489C08EEF8093E80088C018161906E1
:100CC000CCF381C0813029F440E86BE08EE391E001
:100CD000ECCF833009F077C00E94AA01DC011296A4
:100CE000ED90FC9013978E010F5F1F4F6801E11488
:100CF000F10479F0D701ED91FC910680F781E02DA8
:100D0000B801C7010995080F111DF701E084F184AE
:100D1000EECFD8011C92F60101900020E9F731973F
:100D2000BF016C197D0940E0C601BFCF6CE271E0E4
:100D300002C068E271E0FB01449150E080E80E944B
:100D40006002B8CFEE3F2AE0F20751F08081918136
:100D50008737A7E79A0721F09093FF0A8093FE0A4E
:100D600087E797E7918380838091600080933A01C1
:100D70009BE088E10FB6F894A895809360000FBEC1
:100D80009093600097CF808191818737974709F0D2
:100D900091CFA895809160008861809360008091D8
:100DA0003A0180936000EE3FBAE0FB0739F0809192
:100DB000FE0A9091FF0A918380837CCF1092FF0AF4
:100DC0001092FE0A77CF81E28093EB006C960FB60B
:100DD000F894DEBF0FBECDBFDF91CF91FF91EF91B1
:100DE000BF91AF919F918F917F916F915F914F9143
:100DF0003F912F911F910F91FF90EF90DF90CF9037
:100E00000F900FBE0F901F901895CF92DF92EF9228
:100E1000FF920F931F93E82FF92F05C0015011097E
:100E20002109310961F1908196239417B9F305C026
:100E3000015011092109310911F190819623941370
:100E4000F7CFC12CD12CE12CF12C0AC08FEFC81A9E
:100E5000D80AE80AF80A0C151D052E053F0579F099
:100E600080818623841791F36C2D7D2D8E2D9F2DEF
:100E70001F910F91FF90EF90DF90CF90089560E069
:100E800070E080E090E01F910F91FF90EF90DF9075
:100E9000CF900895CF93DF93CDB7DEB7A1970FB66C
:100EA000F894DEBF0FBECDBF789484B5826084BD58
:100EB00084B5816084BD85B5826085BD85B581605E
:100EC00085BD80916E00816080936E0010928100DC
:100ED0008091810082608093810080918100816097
:100EE0008093810080918000816080938000809158
:100EF0009100826080939100809191008160809345
:100F00009100809190008160809390008091C10059
:100F100084608093C1008091C10082608093C10091
:100F20008091C10081608093C1008091C300816085
:100F30008093C3008091C00082608093C000809144
:100F4000C20081608093C20080917A0084608093A7
:100F50007A0080917A00826080937A0080917A0092
:100F6000816080937A0080917A00806880937A0013
:100F70001092540110923B0110923C018091D700D5
:100F800081608093D70080EA8093D80089B5806122
:100F900089BD89B5826089BD09B400FEFDCF0E947C
:100FA000E3018091D8008F7C80618093D80080918C
:100FB000E000807F8093E0008091E1008E7E80934E
:100FC000E1008DE08093E200559A209AE9E8F1E093
:100FD0002491EAE6F1E08491882399F090E0880F6B
:100FE000991FFC01E653FF4FA591B491FC01EA5A09
:100FF000FE4F859194918FB7F894EC91E22BEC938E
:101000008FBFEAE8F1E02491EBE6F1E084918823D8
:10101000C9F090E0880F991FFC01E653FF4F4591FE
:101020005491FC01EA5AFE4FA591B4919FB7F894F0
:10103000FA0180812095822380838C91E22FE8231E
:10104000EC939FBF8FEF9FEF9093620180936101BC
:1010500023E0E22EF12C33E2C32ED12C4AE0842E81
:10106000912CA12CB12C90E0292E90E0392E80E01B
:101070000E940C01C7010197F1F781E00E940C0169
:10108000C6010197F1F780E00E940C01EAE8F1E067
:101090006491EBE6F1E08491E82FF0E0EE0FFF1FA2
:1010A000E852FF4F8591949100E412E42FE030E084
:1010B000462F0E940507611571058105910539F0DC
:1010C000DC01CB010196A11DB11DBF7003C080E002
:1010D00090E0DC01BC01990F880B990B0E941E095E
:1010E00026E933E44BE05DE30E94820920E030E032
:1010F00040E05FE30E9482090E94E6082B013C0168
:10110000709335016093340185E291E00E94F7030A
:10111000052C000C6608770877FE20C06DE285E597
:1011200091E00E94720322273327A901241935096F
:101130004609570919A2CE0181963C01CA01B9019D
:10114000A50194010E94170A605DF30162933F01BB
:10115000211531054105510589F715C0A3019201FB
:1011600019A2CE0181963C01CA01B901A5019401E1
:101170000E94170A605DF30162933F01211531055A
:101180004105510589F7C3010E94F70380E391E00F
:101190000E94F7032114310409F469CF0E94000072
:1011A00062CFE5E5F1E01382128288EE93E0A0E0E1
:1011B000B0E084839583A683B78380E191E0918337
:1011C00080838FEF9FEF9587848708950E94ED08B5
:1011D0006894B1110C947C0908950E94610988F00B
:1011E0009F5798F0B92F9927B751B0F0E1F0660FEB
:1011F000771F881F991F1AF0BA95C9F714C0B1302C
:1012000091F00E947B09B1E008950C947B09672F4F
:10121000782F8827B85F39F0B93FCCF3869577955A
:101220006795B395D9F73EF4909580957095619543
:101230007F4F8F4F9F4F0895E89409C097FB3EF46E
:1012400090958095709561957F4F8F4F9F4F992313
:10125000A9F0F92F96E9BB279395F6958795779591
:101260006795B795F111F8CFFAF4BB0F11F460FF51
:101270001BC06F5F7F4F8F4F9F4F16C0882311F0A9
:1012800096E911C0772321F09EE8872F762F05C0BD
:10129000662371F096E8862F70E060E02AF09A9558
:1012A000660F771F881FDAF7880F9695879597F94D
:1012B000089557FD9058440F551F59F05F3F71F046
:1012C0004795880F97FB991F61F09F3F79F08795AD
:1012D0000895121613061406551FF2CF4695F1DF36
:1012E00008C0161617061806991FF1CF86957105C6
:1012F000610508940895E894BB2766277727CB01FA
:1013000097F908950E9495090C94060A0E94F8091D
:1013100038F00E94FF0920F0952311F00C94EF099A
:101320000C94F50911240C947C090E94590970F35E
:10133000959FC1F3950F50E0551F629FF001729F7A
:10134000BB27F00DB11D639FAA27F00DB11DAA1F89
:10135000649F6627B00DA11D661F829F2227B00DD6
:10136000A11D621F739FB00DA11D621F839FA00D61
:10137000611D221F749F3327A00D611D231F849FB1
:10138000600D211D822F762F6A2F11249F57504008
:101390009AF0F1F088234AF0EE0FFF1FBB1F661F83
:1013A000771F881F91505040A9F79E3F510580F04C
:1013B0000C94EF090C947C095F3FE4F3983ED4F35E
:1013C000869577956795B795F795E7959F5FC1F7F0
:1013D000FE2B880F911D9695879597F9089597F99B
:1013E0009F6780E870E060E008959FEF80EC0895CB
:1013F00000240A94161617061806090608950024F4
:101400000A9412161306140605060895092E03946D
:10141000000C11F4882352F0BB0F40F4BF2B11F4E1
:1014200060FF04C06F5F7F4F8F4F9F4F0895A1E211
:101430001A2EAA1BBB1BFD010DC0AA1FBB1FEE1F4E
:10144000FF1FA217B307E407F50720F0A21BB30B99
:10145000E40BF50B661F771F881F991F1A9469F715
:1014600060957095809590959B01AC01BD01CF0171
:101470000895EE0FFF1F0590F491E02D099481E08F
:0C14800090E0F8940C94440AF894FFCF1C
:10148C00FFFFFFFF00E10000000000000000000073
:10149C007203F00293038803D9039703B50300C1C9
:1014AC00808100000044697374616E63653A2000AA
:0414BC000D0A000015
:00000001FF
