:100000000C9462000C948A000C948A000C948A0070
:100010000C948A000C948A000C948A000C948A0038
:100020000C948A000C948A000C948A000C94B603F9
:100030000C948A000C948A000C948A000C948A0018
:100040000C9414030C948A000C9484030C945E03A7
:100050000C948A000C948A000C948A000C948A00F8
:100060000C948A000C948A000000000023002600F3
:10007000290000000000240027002A0000000000E2
:10008000250028002B0004040404040404040202D4
:100090000202020203030303030301020408102007
:1000A0004080010204081020010204081020000012
:1000B0000008000201000003040700000000000027
:1000C0000000BC0411241FBECFEFD8E0DEBFCDBFBF
:1000D00011E0A0E0B1E0E4E7F0E102C005900D928C
:1000E000A032B107D9F721E0A0E2B1E001C01D9232
:1000F000A33FB207E1F710E0C2E6D0E004C02197C9
:10010000FE010E942D08C136D107C9F70E941A05C9
:100110000C9438080C940000CF92DF92EF92FF927B
:10012000DC01A03282E0B8070CF03EC0B7FD06C08B
:10013000A53BB1052CF0A4EBB0E002C0A0E0B0E01C
:100140008091F10128E830E06901C81AD10887FDE3
:10015000D394CC0CDD1CCC0CDD1C0D2C000CEE085B
:10016000FF088091F20128E532E0281B310987FD64
:100170003395220F331F220F331FA901330F660B54
:10018000770B9A01AB012C193D094E095F090E94BA
:100190008E0624EB30E040E050E00E946406C20E80
:1001A000D31EE41EF51ED6019091F0019C3098F507
:1001B0008091F10148E850E0481B510987FD5395B3
:1001C000440F551F440F551FA417B5078CF080919D
:1001D000F20128E532E0281B310987FD3395220F13
:1001E000331F220F331FAD012A173B070CF4A9015F
:1001F00042505109440F551F2FB7F894892F90E0B2
:10020000FC01EE0FFF1F8E0F9F1FFC01E553FE4FF9
:10021000528341832FBFFF90EF90DF90CF900895DE
:1002200090E0FC01E255FF4F2491FC01E656FF4FA0
:100230003491FC01EA57FF4FE491EE2309F43CC0EE
:10024000222339F1233091F038F42130A9F0223003
:1002500001F584B58F7D12C0273091F02830A1F0D0
:100260002430B9F4809180008F7D03C0809180009C
:100270008F77809380000DC084B58F7784BD09C0CF
:100280008091B0008F7703C08091B0008F7D809304
:10029000B000F0E0EE0FFF1FE458FF4FA591B491BE
:1002A0009FB7F894611104C08C913095382302C037
:1002B000EC913E2B3C939FBF0895CF93DF9390E04A
:1002C000FC01E656FF4F2491FC01EA57FF4F849151
:1002D000882361F190E0880F991FFC01EE58FF4FD1
:1002E000C591D491FC01E458FF4FA591B4916111DF
:1002F00009C09FB7F8948881209582238883EC9168
:100300002E230BC0623061F49FB7F8948881322F9E
:10031000309583238883EC912E2B2C939FBF06C0AE
:100320008FB7F894E8812E2B28838FBFDF91CF9170
:100330000895CF92DF92EF92FF920F931F93CF9386
:10034000DF936C017A018B01C0E0D0E0CE15DF05B0
:1003500081F0D8016D918D01D601ED91FC91019054
:10036000F081E02DC6010995892B11F02196EECF81
:100370007E01C701DF91CF911F910F91FF90EF9008
:10038000DF90CF900895089580E090E00895FC01FB
:10039000538D448D252F30E0842F90E0821B930BEA
:1003A000541710F0CF96089501970895FC01918D90
:1003B000828D981761F0828DDF01A80FB11D5D96C7
:1003C0008C91928D9F5F9F73928F90E008958FEF35
:1003D0009FEF0895FC01918D828D981731F0828DE9
:1003E000E80FF11D858D90E008958FEF9FEF089540
:1003F000FC01918D228D892F90E0805C9F4F821BA4
:1004000091098F73992708958EE291E00E94F80177
:1004100021E0892B09F420E0822F0895FC01848DCE
:10042000DF01A80FB11DA35ABF4F2C91848D90E01E
:1004300001968F739927848FA689B7892C93A089F9
:10044000B1898C91837080648C93938D848D981383
:1004500006C00288F389E02D80818F7D8083089516
:10046000EF92FF920F931F93CF93DF93EC0181E004
:10047000888F9B8D8C8D981305C0E889F9898081C0
:1004800085FD26C0F62E0B8D10E00F5F1F4F0F73FA
:100490001127E02E8C8DE8120CC00FB607FCFACFA6
:1004A000E889F989808185FFF5CFCE010E940E028F
:1004B000F1CF8B8DFE01E80FF11DE35AFF4FF08263
:1004C0009FB7F8940B8FEA89FB89808180620AC00C
:1004D0009FB7F894EE89FF896083E889F989808164
:1004E0008370806480839FBF81E090E0DF91CF9133
:1004F0001F910F91FF90EF900895CF93DF93EC0140
:10050000888D8823C9F0EA89FB89808185FD05C033
:10051000A889B9898C9186FD0FC00FB607FCF5CF6D
:10052000808185FFF2CFA889B9898C9185FFEDCFB5
:10053000CE010E940E02E7CFDF91CF91089580E0B7
:1005400090E0892B29F00E94040281110C94000094
:100550000895009769F0FC0101900020E9F73197B8
:10056000AF01481B590BBC018EE291E00C9499013C
:1005700080E090E008950E9433080F931F9360E09D
:1005800089E00E94100183E090E00197F1F761E0BB
:1005900089E00E94100183E290E00197F1F760E0AA
:1005A00089E00E941001E4EAF0E06491E0E9F0E003
:1005B000E491F0E0EE0FFF1FE859FF4F8591949111
:1005C00000E412E42FE030E0462F0E94770461152A
:1005D00071058105910549F0DC01CB010196A11D52
:1005E000B11DBC01CD019F7003C060E070E0CB0184
:1005F0000E94020728E23EE74CE05DE30E948C0780
:1006000020E030E040E05FE30E948C07609321012E
:100610007093220180932301909324010E94CC06C1
:10062000CB011F910F9108951F920F920FB60F9259
:1006300011242F933F938F939F93AF93BF938091F8
:100640002A0190912B01A0912C01B0912D013091A4
:10065000290123E0230F2D3720F40196A11DB11DA0
:1006600005C026E8230F0296A11DB11D2093290184
:1006700080932A0190932B01A0932C01B0932D011C
:100680008091250190912601A0912701B091280128
:100690000196A11DB11D8093250190932601A09381
:1006A0002701B0932801BF91AF919F918F913F9106
:1006B0002F910F900FBE0F901F9018951F920F92C1
:1006C0000FB60F9211242F933F934F935F936F9325
:1006D0007F938F939F93AF93BF93EF93FF938EE29C
:1006E00091E00E940E02FF91EF91BF91AF919F9117
:1006F0008F917F916F915F914F913F912F910F90CB
:100700000FBE0F901F9018951F920F920FB60F9269
:1007100011242F938F939F93EF93FF93E0913E01CA
:10072000F0913F018081E0914401F091450182FD0B
:1007300012C09081809147018F5F8F732091480193
:10074000821751F0E0914701F0E0E25DFE4F958F96
:100750008093470101C08081FF91EF919F918F911C
:100760002F910F900FBE0F901F9018951F920F9210
:100770000FB60F9211242F933F934F935F936F9374
:100780007F938F939F93AF93BF93EF93FF9380914A
:10079000200187FF05C010928500109284001BC0C5
:1007A00020912001022E000C330B8091EF0190E08C
:1007B0002817390784F480912001082E000C990B2A
:1007C000FC01EE0FFF1F8E0F9F1FFC01E553FE4F34
:1007D000808186FD15C0809120018F5F809320016C
:1007E00020912001022E000C330B8091EF0190E04C
:1007F00028173907C4F4809120018C3064F113C0AC
:1008000080912001082E000C990BFC01EE0FFF1FB8
:100810008E0F9F1FFC01E553FE4F808160E08F73B8
:100820000E941001D8CF8091840090918500049699
:1008300080349C4918F480E49CE905C080918400D0
:1008400090918500049690938900809388008FEFA3
:10085000809320013BC020918400309185008091DD
:100860002001082E000C990BFC01EE0FFF1F8E0FCC
:100870009F1FFC01E553FE4F81819281820F931FE0
:10088000909389008093880080912001082E000CAD
:10089000990BFC01EE0FFF1F8E0F9F1FFC01E5530C
:1008A000FE4F808186FF12C080912001082E000C2F
:1008B000990BFC01EE0FFF1F8E0F9F1FFC01E553EC
:1008C000FE4F808161E08F730E941001FF91EF91D4
:1008D000BF91AF919F918F917F916F915F914F9158
:1008E0003F912F910F900FBE0F901F901895CF92B0
:1008F000DF92EF92FF920F931F93E82FF92F05C01D
:10090000015011092109310961F190819623941751
:10091000B9F305C0015011092109310911F1908184
:1009200096239413F7CFC12CD12CE12CF12C0AC0C3
:100930008FEFC81AD80AE80AF80A0C151D052E050B
:100940003F0579F080818623841791F36C2D7D2DEE
:100950008E2D9F2D1F910F91FF90EF90DF90CF90E4
:10096000089560E070E080E090E01F910F91FF90AB
:10097000EF90DF90CF9008951092310110923001E6
:1009800088EE93E0A0E0B0E08093320190933301D1
:10099000A0933401B093350184E091E090932F014E
:1009A00080932E0185EC90E090933B0180933A0177
:1009B00084EC90E090933D0180933C0180EC90E0CA
:1009C00090933F0180933E0181EC90E09093410130
:1009D0008093400182EC90E0909343018093420128
:1009E00086EC90E09093450180934401109247017A
:1009F000109248011092490110924A018091EF0132
:100A00008C30A0F491E0980F9093EF018093F00167
:100A100090E0FC01EE0FFF1F8E0F9F1FFC01E553BE
:100A2000FE4F88EB9BE09283818308958FEF809344
:100A3000F0010895CF93DF93CDB7DEB7A1970FB63E
:100A4000F894DEBF0FBECDBF789484B5826084BDBC
:100A500084B5816084BD85B5826085BD85B58160C2
:100A600085BD80916E00816080936E001092810040
:100A700080918100826080938100809181008160FB
:100A800080938100809180008160809380008091BC
:100A9000B10084608093B1008091B0008160809348
:100AA000B00080917A00846080937A0080917A000F
:100AB000826080937A0080917A00816080937A00CE
:100AC00080917A00806880937A001092C1008091B2
:100AD000F0018C3008F051C061E08BE00E945D01B4
:100AE0008091F001E82FF0E09F01220F331FE20F09
:100AF000F31FE553FE4F9081907C9B609083109292
:100B0000F1011092F2016CE00E9421089CE0899FA3
:100B1000B001112440E050E09B01240F351FF90182
:100B2000EE0FFF1F2E0F3F1FF901E553FE4F90817F
:100B300096FD16C04F5F5F4F4C30510569F781112C
:100B40000FC01092800082E0809381001092850097
:100B500010928400B19A80916F00826080936F0040
:100B6000E091F001F0E0CF01880F991FE80FF91F25
:100B7000E553FE4F80818064808361E089E00E94BC
:100B80005D0160E08AE00E945D01E0913E01F0912C
:100B90003F0182E08083E0913A01F0913B011082B5
:100BA000E0913C01F0913D018FEC80831092460171
:100BB000E0914201F091430186E08083E0914001A1
:100BC000F0914101808180618083E0914001F0914A
:100BD0004101808188608083E0914001F091410172
:100BE000808180688083E0914001F09141018081A3
:100BF0008F7D80838AE0882E912CA12CB12C0E94BD
:100C0000BD0280E090E00E948C0020E030E040E2F5
:100C100051E4609121017091220180912301909112
:100C200024010E94C706181624F089E590E00E946E
:100C30008C0082E191E00E94A9020E94BD026C0139
:100C4000990FEE08FF08F7FE20C06DE28EE291E0FA
:100C50000E94300222273327A9012C193D094E0991
:100C60005F0919A2FE01B1967F01CA01B901A50170
:100C700094010E949606605DF70162937F01211541
:100C800031054105510589F715C0A701960119A243
:100C9000CE0181967C01CA01B901A50194010E948F
:100CA0009606605DF70162937F01211531054105CC
:100CB000510589F7C7010E94A9028CE191E00E94C9
:100CC000A9020E949F029BCF052E97FB1EF4009461
:100CD0000E947B0657FD07D00E94960607FC03D0B2
:100CE0004EF40C947B0650954095309521953F4FDE
:100CF0004F4F5F4F089590958095709561957F4F08
:100D00008F4F9F4F08950E94B806A59F900DB49FE6
:100D1000900DA49F800D911D11240895B7FF0C9490
:100D200083060E948306821B930B0895A1E21A2E6C
:100D3000AA1BBB1BFD010DC0AA1FBB1FEE1FFF1F7F
:100D4000A217B307E407F50720F0A21BB30BE40BCF
:100D5000F50B661F771F881F991F1A9469F7609516
:100D60007095809590959B01AC01BD01CF010895D0
:100D7000A29FB001B39FC001A39F700D811D1124DC
:100D8000911DB29F700D811D1124911D08950E9427
:100D90003F0708F481E008950E94D3066894B111DA
:100DA0000C94860708950E946B0788F09F5798F06F
:100DB000B92F9927B751B0F0E1F0660F771F881F60
:100DC000991F1AF0BA95C9F714C0B13091F00E947A
:100DD0008507B1E008950C948507672F782F882741
:100DE000B85F39F0B93FCCF3869577956795B395A1
:100DF000D9F73EF490958095709561957F4F8F4F10
:100E00009F4F0895E89409C097FB3EF49095809514
:100E1000709561957F4F8F4F9F4F9923A9F0F92FC0
:100E200096E9BB279395F695879577956795B7953E
:100E3000F111F8CFFAF4BB0F11F460FF1BC06F5F24
:100E40007F4F8F4F9F4F16C0882311F096E911C036
:100E5000772321F09EE8872F762F05C0662371F057
:100E600096E8862F70E060E02AF09A95660F771F6B
:100E7000881FDAF7880F9695879597F90895990F47
:100E80000008550FAA0BE0E8FEEF16161706E80754
:100E9000F907C0F012161306E407F50798F0621B75
:100EA000730B840B950B39F40A2661F0232B242B4A
:100EB000252B21F408950A2609F4A140A6958FEF69
:100EC000811D811D089557FD9058440F551F59F0FD
:100ED0005F3F71F04795880F97FB991F61F09F3F27
:100EE00079F087950895121613061406551FF2CF50
:100EF0004695F1DF08C0161617061806991FF1CFA0
:100F000086957105610508940895E894BB276627C6
:100F10007727CB0197F908950E949F070C9410083A
:100F20000E94020838F00E94090820F0952311F071
:100F30000C94F9070C94FF0711240C9486070E9467
:100F4000630770F3959FC1F3950F50E0551F629FA3
:100F5000F001729FBB27F00DB11D639FAA27F00D12
:100F6000B11DAA1F649F6627B00DA11D661F829F39
:100F70002227B00DA11D621F739FB00DA11D621F1E
:100F8000839FA00D611D221F749F3327A00D611D3B
:100F9000231F849F600D211D822F762F6A2F11241D
:100FA0009F5750409AF0F1F088234AF0EE0FFF1F50
:100FB000BB1F661F771F881F91505040A9F79E3FA7
:100FC000510580F00C94F9070C9486075F3FE4F319
:100FD000983ED4F3869577956795B795F795E795FD
:100FE0009F5FC1F7FE2B880F911D9695879597F906
:100FF000089597F99F6780E870E060E008959FEF9B
:1010000080EC089500240A9416161706180609069F
:10101000089500240A94121613061406050608956E
:10102000092E0394000C11F4882352F0BB0F40F4F6
:10103000BF2B11F460FF04C06F5F7F4F8F4F9F4F36
:101040000895991B79E004C0991F961708F0961B24
:10105000881F7A95C9F780950895EE0FFF1F0590B8
:10106000F491E02D099481E090E0F8940C94380814
:04107000F894FFCF22
:101074000000000030029901C7017D02F801D60189
:10108400EA0164697374616E63653A000D0A0000D5
:00000001FF
