:100000000C9458000C9480000C9480000C94800098
:100010000C9480000C9480000C9480000C94800060
:100020000C9480000C9480000C9480000C94800050
:100030000C9480000C9480000C9480000C94800040
:100040000C94C3030C9480000C9480000C948000EA
:100050000C9480000C9480000C9480000C94800020
:100060000C94A4020C9480000000000025002800DD
:100070002B00040404040404040402020202020229
:10008000030303030303010204081020408001025C
:1000900004081020010204081020000000080002DB
:1000A00001000003040700000000000000000D0430
:1000B00011241FBECFEFD8E0DEBFCDBF11E0A0E01E
:1000C000B1E0E8E6FBE002C005900D92A433B10771
:1000D000D9F722E0A4E3B1E001C01D92A930B20734
:1000E000E1F710E0C8E5D0E004C02197FE010E94CE
:1000F000AC05C735D107C9F70E942D040C94B20591
:100100000C94000090E0FC01E656FF4F2491FC01A6
:10011000EA57FF4F3491FC01EE58FF4FE491EE2374
:10012000B1F0222339F02330E9F090F4213001F1CD
:10013000223011F1F0E0EE0FFF1FE859FF4FA591BB
:10014000B4918FB7F894EC913E2B3C938FBF0895F8
:100150002730A9F02830C9F0243061F78091800061
:100160008F7D03C0809180008F7780938000E2CFE5
:1001700084B58F7784BDDECF84B58F7DFBCF809132
:10018000B0008F778093B000D5CF8091B0008F7D85
:10019000F9CF85ED8093BC008091BC0084FDFCCF3D
:1001A0001092CB0108952091A501260F3327331F0C
:1001B00021323105ECF42091CB01FC0190E080E08C
:1001C000243069F082E00895A091A5012191AC014D
:1001D0004D575E4FA40FB52FB11D2C930196861776
:1001E00098F38091A501680F6093A50180E00895C0
:1001F00081E00895089508950895E0918001809127
:100200007F01E81730F4F0E0E15AFE4F808190E082
:1002100008958FEF9FEF08959091800180917F0165
:100220002FEF3FEF981748F4E92FF0E0E15AFE4F27
:10023000208130E09F5F90938001C90108958091F3
:100240007F0190918001891B990B0895CF92DF92D5
:10025000EF92FF920F931F93CF93DF937C01CB011B
:100260008A0120915E01222389F0EB016B01C40E0B
:10027000D51ECC15DD0569F06991D701ED91FC9192
:100280000190F081E02DC7010995F3CF642F0E9402
:10029000D300C801DF91CF911F910F91FF90EF9094
:1002A000DF90CF900895CF93DF931F92CDB7DEB745
:1002B000698320915E012223F9F02091810120328F
:1002C00058F021E030E0FC013383228390E080E0AD
:1002D0000F90DF91CF91089580918201E82FF0E097
:1002E000E25CFE4F998190838F5F809382018093BF
:1002F000810181E090E0ECCF61E0CE0101960E94A7
:10030000D300F7CF3FB7F89480913A0190913B0129
:10031000A0913C01B0913D0126B5A89B05C02F3F9F
:1003200019F00196A11DB11D3FBFBA2FA92F982F1B
:100330008827BC01CD01620F711D811D911D42E016
:10034000660F771F881F991F4A95D1F708958F92DE
:100350009F92AF92BF92CF92DF92EF92FF924B01AA
:100360005C010E9482016B017C010E9482016C1978
:100370007D098E099F09683E734081059105A8F3A8
:1003800021E0821A9108A108B10888EEC80E83E026
:10039000D81EE11CF11C81149104A104B10429F7B9
:1003A000FF90EF90DF90CF90BF90AF909F908F9095
:1003B0000895AF92BF92CF92DF92EF92FF920F9388
:1003C0001F93CF93DF936C017B018B01040F151FEB
:1003D000EB015E01AE18BF08C017D10759F0699153
:1003E000D601ED91FC910190F081E02DC6010995B7
:1003F000892B79F7C501DF91CF911F910F91FF9064
:10040000EF90DF90CF90BF90AF900895CF93FC0115
:10041000C48121E020935E01C093340110928201D7
:10042000109281018385682B81EF91E00E94530136
:1004300090918101913208F03FC08091CB018111F0
:10044000FCCF82E08093CB0181E08093CD018FEFE0
:100450008093CA011092EF019093EE01AEE3B1E0F8
:10046000EEECF1E080E098132FC01092F001809143
:10047000F001CC0FC82BC093F0018091CC018130EA
:1004800039F51092CC018091F0018093BB008091EE
:10049000BC0083FDF8CF85EC8093BC008091CB013C
:1004A0008230E1F38091CA018F3F31F08091CA011F
:1004B000803211F08091CA01109282011092810164
:1004C00010925E01CF9108952D9121938F5FCBCF34
:1004D00085EEE2CF089590E080E008950F931F939A
:1004E000CF938C01C62F0E9406026C2F6460C80156
:1004F0000E9406026C2F6B7FC8010E94060283ECEB
:1005000090E00197F1F7CF911F910F9108950F930C
:100510001F93CF93DF938C01D62FC42F607F642B62
:100520000E946E0280E1D89FB00111246C2BC8019B
:10053000DF91CF911F910F910C946E0241E00E94C8
:10054000870281E090E008951F920F920FB60F92FC
:1005500011242F933F934F935F936F937F938F93C8
:100560009F93AF93BF93EF93FF938091B900887FE0
:10057000803609F44AC0F0F5883209F4A7C018F5AE
:10058000803109F49BC0B8F4882309F4F9C088309D
:1005900009F494C0FF91EF91BF91AF919F918F911A
:1005A0007F916F915F914F913F912F910F900FBE6F
:1005B0000F901F901895883109F488C0803251F748
:1005C0008093CA0114C0803409F49DC040F4803384
:1005D000B9F38833F9F68093CA0185ECB0C0803551
:1005E00009F485C0883509F496C0883499F60E94CC
:1005F000C900D0CF883909F48CC038F5883729F084
:1006000050F4883611F0803729F683E08093CB01CF
:100610001092C90157C0883809F47BC0803919F09D
:10062000803809F0B7CF8091C901803208F071C0DD
:10063000E091C90181E08E0F8093C9018091BB00D8
:10064000F0E0E755FE4F80833DC0803B39F0E0F499
:10065000803A09F479C0883A09F09CCF84E080930D
:10066000CB011092A6011092A501E091A301F09197
:10067000A40109958091A50181110FC081E08093AB
:10068000A5011092830109C0803C09F4A6CF883CE3
:1006900009F4A3CF883B09F07DCFE091A60181E06A
:1006A0008E0F8093A601F0E0ED57FE4F808180937E
:1006B000BB009091A6018091A50129C08091F00115
:1006C0008093BB0085EC8093BC0064CF9091EF01D8
:1006D0008091EE01981758F5E091EF0181E08E0FBF
:1006E0008093EF01F0E0E253FE4F8081E9CFE0918B
:1006F000EF0181E08E0F8093EF018091BB00F0E06D
:10070000E253FE4F80839091EF018091EE019817A4
:10071000C8F285E8D8CFE091EF0181E08E0F809399
:10072000EF018091BB00F0E0E253FE4F80838091A7
:10073000CD0181115CCF81E08093CC0184EA80936C
:10074000BC001092CB0126CF85EC8093BC001092A8
:10075000CB018091C901803230F4E091C901F0E011
:10076000E755FE4F10826091C90170E0E091A7014A
:10077000F091A80189EA91E009951092C9010ACF88
:100780001092CA0134CF1F920F920FB60F9211240C
:100790002F933F938F939F93AF93BF938091360195
:1007A00090913701A0913801B09139013091350114
:1007B00023E0230F2D3758F50196A11DB11D20937D
:1007C00035018093360190933701A0933801B0939F
:1007D000390180913A0190913B01A0913C01B09187
:1007E0003D010196A11DB11D80933A0190933B01FB
:1007F000A0933C01B0933D01BF91AF919F918F9128
:100800003F912F910F900FBE0F901F90189526E8E3
:10081000230F0296A11DB11DD2CFE1EFF1E01382AB
:10082000128288EE93E0A0E0B0E084839583A683F3
:10083000B7838CE091E091838083EDEFF1E0138248
:1008400012828EE191E09183808387E2848380E14C
:10085000818782E0828713860895CF93DF93CDB797
:10086000DEB7A1970FB6F894DEBF0FBECDBF789468
:1008700084B5826084BD84B5816084BD85B58260A5
:1008800085BD85B5816085BD80916E008160809356
:100890006E001092810080918100826080938100BF
:1008A00080918100816080938100809180008160CF
:1008B000809380008091B10084608093B10080912A
:1008C000B00081608093B00080917A008460809352
:1008D0007A0080917A00826080937A0080917A0019
:1008E000816080937A0080917A00806880937A009A
:1008F0001092C1001092800110927F01109282012B
:10090000109281011092CB0181E08093CD01109271
:10091000CC0182E10E94820083E10E9482008091EA
:10092000B9008E7F8093B9008091B9008D7F80934C
:10093000B90088E48093B80085E48093BC008AEF16
:1009400090E09093A4018093A3018BEF90E09093AB
:10095000A8018093A70110920202809107028230C1
:1009600018F098E0909302028093050262E370E031
:1009700080E090E00E94A701609108028DEF91E075
:100980000E94060268EE73E080E090E00E94A701FA
:1009900060E38DEF91E00E946E020BE416E4C80163
:1009A0000197F1F760E38DEF91E00E946E02C801BC
:1009B0000197F1F760E38DEF91E00E946E0283E50D
:1009C00092E00197F1F760E28DEF91E00E946E02F4
:1009D00060910202606240E08DEF91E00E94870228
:1009E00084E08093030240E06CE08DEF91E00E9490
:1009F000870240E061E08DEF91E00E9487020BE307
:100A00001FE1C8010197F1F782E08093040240E002
:100A100066E08DEF91E00E94870240E062E08DEF9A
:100A200091E00E948702C8010197F1F788E0809366
:100A3000080260E08DEF91E00E9406024CE050E079
:100A400066E271E08DEF91E00E94D90198EEC92E27
:100A500093E0D92EE12CF12C2AE0422E512C612C6E
:100A6000712C30E0A32E30E0B32E88E0E0E0F1E01E
:100A7000DE01119601900D928A95E1F780910502B1
:100A8000EFEF8111E1E0F0E0EE0FFF1F81E090E079
:100A90008C0F9D1FE80FF91F6081606840E08DEFAB
:100AA00091E00E9487022FB7F8946091360170910F
:100AB000370180913801909139012FBFA70196012C
:100AC0000E948A0519A28E010F5D1F4FCA01B9014C
:100AD000A30192010E948A05605DF80162938F0173
:100AE000211531054105510589F7309761F00190D5
:100AF0000020E9F73197AF01401B510BB8018DEF92
:100B000091E00E94D901A114B10409F4AECF0E9472
:100B10000000ABCFA1E21A2EAA1BBB1BFD010DC02A
:100B2000AA1FBB1FEE1FFF1FA217B307E407F5079D
:100B300020F0A21BB30BE40BF50B661F771F881F79
:100B4000991F1A9469F760957095809590959B010F
:100B5000AC01BD01CF010895EE0FFF1F0590F49188
:080B6000E02D0994F894FFCF89
:100B6800000040001400540000000000530126015A
:100B78006B02FC001F010C01FD00000000009E023A
:100B8800D9016B026A0268656C6C6F20776F726CB2
:040B980064210000D4
:00000001FF
